:1000000036C054C053C0F7C251C050C04FC04EC0DC
:100010004DC04CC04BC04AC049C048C047C046C094
:1000200045C044C043C0202020202020202075034C
:1000300083038C0395039E03A703B003B9036C00ED
:100040006A00680066006400620060005E0054029E
:1000500067025C02700274026B0260025802910037
:10006000C300F500270159018B01BD01EF011124E7
:10007000A0E6B4E01E92A036B105E1F7AFE0ADBF57
:10008000B2E0BEBFEFC111241FBECFE5D4E0DEBF9A
:10009000CDBF10E0A0E6B0E0E8E8F7E002C00590D0
:1000A0000D92A036B107D9F7DDD16CC3A9CFE82FE7
:1000B000F0E0EE0FFF1FE25BFF4F859194910895F2
:1000C0002DB73EB783E592E0821B930B85369105F1
:1000D00020F040E060E082E2C6C00895C82F809121
:1000E00066028F7380936602C0FF8DC07CD2182F8A
:1000F000C1FF34C0809164028F5F809364028111DC
:100100000AC0809165028F5F8093650280916602CC
:10011000806280936602D4DFC0916602C5FF1EC074
:10012000E0906402F12CD0E08D2FC1DFFC018181D1
:1001300084FD0CC0238190916502291307C0928130
:10014000E91618F08061818301C0F394DF5FD83035
:1001500059F7F11003C0CF7DC0936602B1DFC0E054
:10016000DFEE8C2FA4DFFC018181D81710F4D82F8B
:100170000C2FCF5FC830A9F7DF3EF1F0802F97DF5B
:100180007C01FC01818180FF0CC0F70181818E7FA1
:10019000818380916602807F802B80936602C0E01D
:1001A0000CC0C0E08C2F83DFFC01918191609183B2
:1001B000CF5FC830B9F7E9CFC0E415D2811710F08E
:1001C000811B02C0811B805E90916F02292F220F3C
:1001D0002E5F920F890F8695869580936F028031EE
:1001E00020F040E060E086E23ED0CC2361F08091D8
:1001F00066028F7380688093660283E592E08DBF0C
:100200009EBF7894E2C1E0916602EF73E064E093F0
:100210006602CE2FCF708C2F4ADF1092F40110921D
:10022000F501EC2FF0E0EE0FFF1FE25CFF4F259190
:100230003491F901259134913093F8012093F7011D
:10024000A9014D5151095093FC014093FB0190933A
:10025000FA018093F901FC018081281B31092DBF2F
:100260003EBF18C20895EF92FF920F931F93CF9352
:10027000DF93082FD42FF8948F73F82E06FD34C027
:1002800080916602807C9FE1C1E09F1538F0803C40
:1002900009F0C0E0C11102C011E0811110E06F73DC
:1002A000E62E111104C083E592E08DBF9EBFA4D15C
:1002B00007FF06C0009166020F70D07FD02B02C0EE
:1002C0000D2F0F704D2F6E2D8F2D3BD1C111FACFF9
:1002D000F7DE84D1802FEBDE20E1FC0121831111B8
:1002E0000AC081E0FBDE07C0C1E0FFE1F81708F0BB
:1002F000C0E080E0CFCFDF91CF911F910F91FF90B1
:10030000EF900895809166028F700895FF920F9389
:100310001F93CF93DF938C01F62ED2DEF3DFC7DE7F
:10032000EC018091640290916502F1100DC02A8168
:100330003B81821B930B0817190720F440E060E013
:1003400080E991DF8A819B81080F191F1B830A8333
:100350009B8180916502981305C08091660280623E
:100360008093660289818F7E8983DF91CF911F916F
:100370000F91FF9008950F931F93CF93DF93C2DFE8
:10038000C82F95DEFC018081833320F040E060E0DF
:1003900084EA69DFEC2FF0E0EE0FFF1FE25CFF4F15
:1003A00085919491FC01859194918C010D511109D5
:1003B000EC01E197F80182918F01882321F040E060
:1003C00060E084EA50DFC017D107A1F7DF91CF9139
:1003D0001F910F91089540916602942F907C903C5C
:1003E000C9F04F70E42FF0E0EA5DFF4FE491E09533
:1003F0002E2F2072E5FF0EC098E027FD03C091501C
:10040000220FFBCF50E1959F90011124422B682FC2
:1004100081E029CF089590916602907C9034D9F4C0
:100420009091F60197FF04C040E060E0836811C03E
:100430009091F40190952091F501922359F047E0B5
:1004400097FD03C04150990FFBCF4295407F60E07C
:10045000846809DF90CF08954F9AD5D080E4DBDF20
:1004600083E03CCE6DD09FD03CD10EE310E0CEE2D5
:10047000D0E0F12C80EFD82E93E0E92E8F2D17DEFF
:10048000FC01D182F80125913491F901A591B49133
:10049000FE01259134912C93FD0131973083129701
:1004A0001C92FC01E082F3940E5F1F4F2296F8E04D
:1004B000FF12E4CF93D081E011CE17F4F8944F9A55
:1004C000A2D005C017F4F8944F9A9DD015C0EC0146
:1004D00080E0A1DF83E07FDFC1158FEFD80728F030
:1004E00040E063E08FE8BFDE02C0209719F061E0D2
:1004F000CE010CDF81E0F2CDEC0180E08CDF84E006
:100500006ADFC1158FEFD80728F040E064E08FE87C
:10051000AADE02C0209719F060E0CE01F7DE81E08C
:10052000DDCD19BE97E095BD14BC90E498BF88233B
:1005300031F008B606FEFDCF98BF8150F8CF089580
:100540000895DF92EF92FF920F931F93CF93DF9363
:100550009FEF97BBC1E1D82ED094D62FD095142F02
:100560001095C150C1F088E0E82EF12C00E8802FF2
:10057000809588BB82E0D5DF069581E0E81AF10816
:10058000B1F7D8BA80E2CDDFD8BB80E2CADF18BBB2
:1005900080E2C7DFE6CFDF91CF911F910F91FF90EF
:1005A000EF90DF900895CF93DF938FEF87BBC6E086
:1005B000DFEFC15039F018BA81E0B3DFD8BB81E07A
:1005C000B0DFF7CFDF91CF91089589B7806889BFF9
:1005D00085B78F78806885BF8895FFCF8EE085BD11
:1005E00080E283BD089584B508B607FE03C080315C
:1005F00008F4805E089530CF9FB7F89489B78F775D
:1006000089BF9FBF0895F093F001E093F101D0936B
:10061000F201C093F301FF91F0935202FF91F09326
:100620005302F0916602F7FD27C0CFB7EDB7D09126
:10063000FB01ED1BE0E0FEB7D091FC01FD0B08F4DF
:10064000E068E093F601F0E0EF130DC0F091F401E3
:10065000D5EA1C2EF12D4F99F068FF93C091F5015A
:10066000EC23E093F5011090F701FDB71F1AE0911C
:10067000F901F091FA011082E9B7EF77E9BFF1E5EE
:10068000FDBFF2E0FEBFE091F101F091F0014F9863
:10069000112408951124E9B7FF914F98F7FD4F9A5F
:1006A000FF77E068FFBFE9BF0090F401F5EA2F2E65
:1006B0004F9B08954F9818958FEF88BB87BB85BBDC
:1006C00084BB12BA81BB089510BC81E089B9539AEA
:1006D00086E880BD0895F0DFF7CF5D9BFECF8CB933
:1006E000089587B38FEF87BBF6CF86EB93E0EADE02
:1006F00084E7F3DF81E090E0E0DE85E6EEDF81E095
:1007000090E0DBDEF2CFC19A8AE992E0D6DEC198B2
:100710008AE992E0D2DEF7CFC29A82EC94E0CDDE95
:10072000C29882EC94E0C9DEF7CFC39A85EB98E0DB
:10073000C4DEC39885EB98E0C0DEF7CFC49A8FEE95
:100740009FE0BBDEC4988FEE9FE0B7DEF7CFC59A7F
:1007500089E29DE1B2DEC59889E29DE1AEDEF7CF88
:10076000C69A8DE595E3A9DEC6988DE595E3A5DEED
:10077000F7CFC79A88EA91E6A0DEC79888EA91E6A3
:080780009CDEF7CFF894FFCFD7
:00000001FF
