:1000000016C034C033C00CC231C030C02FC02EC0A7
:100010002DC02CC02BC02AC029C028C027C026C094
:1000200025C024C023C0E2022C002A01C5001124EF
:10003000A0E6B4E01E92A036B105E1F7A5EEADBF93
:10004000B0E0BEBF40C111241FBECFE5D4E0DEBF8B
:10005000CDBF10E0A0E6B0E0E8EDF5E002C005900D
:100060000D92A236B107D9F72ED1B4C2C9CFE82F6D
:10007000F0E0EE0FFF1FE65DFF4F8591949108952C
:10008000809130018F700895FF920F931F93CF934B
:10009000DF93182FF894082F0F7386FD30C08091DE
:1000A0003001807CC1E0003238F4803C09F0C0E0CF
:1000B000C11102C0D1E08111D0E06F73F62ED111D1
:1000C00004C089E291E08DBF9EBFABD117FF04C091
:1000D000109130011F7001C010E0412F6F2D802F53
:1000E0004DD1C111FACF46D096D1812FC0DF20E18A
:1000F000FC012183D11109C081E049D006C0C1E0D3
:10010000003208F4C0E080E0D3CFDF91CF911F919F
:100110000F91FF9008950F931F93CF93DF93B0DF5C
:10012000C82FA5DFFC018081853618F060E084EAE5
:10013000ABDFEC2FF0E0EE0FFF1FE85DFF4F859186
:100140009491FC01859194918C0109551109EC0160
:10015000C356D109F80182918F01882319F060E01C
:1001600084EA92DFC017D107A9F7DF91CF911F91E1
:100170000F9108952DB73EB789E291E0821B930B52
:100180008536910518F060E082E27ECF0895909167
:1001900030019F739093300180FF49C081FF23C0DD
:1001A00080912E018F5F80932E01811108C0809174
:1001B0002F018F5F80932F01906290933001DADFDF
:1001C000C0913001C5FF0FC080E051DFFC0191817B
:1001D00094FD06C0238180912F01281709F456C091
:1001E000CF7DC0933001C6DF80E041DFFC0191810B
:1001F000903F70F090FD02C09160918381818E7F6D
:10020000818380913001807F8093300180E001C044
:1002100080E4882361F0809130018F73806880933F
:10022000300189E291E08DBF9EBF7894EBC0E091F0
:100230003001EF73E064E0933001CE2FCF708C2F4C
:1002400016DF2FEF2093CA00EC2FF0E0EE0FFF1F18
:10025000E85DFF4F25913491F90125913491309358
:10026000CE002093CD00A901495351095093D200EB
:100270004093D1009093D0008093CF00FC01808107
:10028000281B31092DBF3EBF42C1089522818091B4
:100290002E01821708F4A7CF90619183A1CF90918E
:1002A0003001907C903441F49091CC0097FF03C0D2
:1002B00060E08368E9DE2FCF08954F9AB9D080E4DB
:1002C000EEDF83E064CF59D08BD07BD180E0CFDEEE
:1002D00020EFFC012183E8E2F0E025913491F9015F
:1002E000A591B491E6E2F0E0259134912C93FD01C3
:1002F00031973083929721E82C9323E2FC012083ED
:100300008AD081E044CF17F4F8944F9A91D000C07E
:10031000EC0180E0C4DFC1158FEFD80720F064E066
:100320008FE8B2DE02C02097B9F024DFA9DE9FDE9D
:10033000FC0182819381C80FD91FD383C28393812B
:1003400080912F01981305C08091300180628093C5
:10035000300181818F7E818381E019CF19BE97E0C2
:1003600095BD14BC90E498BF882331F008B606FE12
:10037000FDCF98BF8150F8CF08950895DF92EF9296
:10038000FF920F931F93CF93DF939FEF97BBC1E132
:10039000D82ED094D62FD095142F1095C150C1F0DF
:1003A00088E0E82EF12C00E8802F809588BB82E061
:1003B000D5DF069581E0E81AF108B1F7D8BA80E2F6
:1003C000CDDFD8BB80E2CADF18BB80E2C7DFE6CF53
:1003D000DF91CF911F910F91FF90EF90DF900895E3
:1003E000CF93DF938FEF87BBC6E0DFEFC15039F0CB
:1003F00018BA81E0B3DFD8BB81E0B0DFF7CFDF917F
:10040000CF91089589B7806889BF85B78F78806854
:1004100085BF8895FFCF8EE085BD80E283BD0895BE
:100420004CCF9FB7F89489B78F7789BF9FBF089546
:10043000F093C600E093C700D093C800C093C900F2
:10044000FF91F0932801FF91F0932901F091300181
:10045000F7FD4FC0CFB7EDB7D091D100ED1BE0E075
:10046000FEB7D091D200FD0B08F4E068E093CC0019
:10047000F0E0EF1335C0F091CA00D5EA0F921F9259
:100480002F923F921C2E4F925F926F927F928F928B
:100490009F92AF92BF92CF92DF92EF92FF920F9313
:1004A0001F932F933F934F935F936F937F938F93FC
:1004B0009F93AF93BF93C091C900CF93C091C800E1
:1004C000CF93C091C700CF93C091C600CF93F12DB9
:1004D0004F99F068FF93C091CB00EC23E093CB00E1
:1004E0001090CD00FDB71F1AE091CF00F091D00021
:1004F0001082E9B7EF77E9BFF7E2FDBFF1E0FEBF99
:10050000E091C700F091C6004F981124089511247E
:10051000E9B7FF914F98F7FD4F9AFF77E068FFBF6B
:10052000E9BF0090CA00F5EA2F2EFF91EF91DF910D
:10053000CF91BF91AF919F918F917F916F915F917B
:100540004F913F912F911F910F91FF90EF90DF906E
:10055000CF90BF90AF909F908F907F906F905F9063
:100560004F903F902F901F900F904F9B08954F9862
:1005700018958FEF88BB87BB85BB84BB12BA81BB44
:10058000089588B3809588BB82B3809582BB089517
:1005900010BC83E389B988E08AB986E880BD0895F4
:1005A000E8DFF6CF5D9BFECF8CB90895CF93DF9344
:1005B000EC018991882311F0F5DFFBCFDF91CF911A
:1005C0000895EECF86EB93E09EDEDBDF80E690E0E1
:0805D000EDDFF8CFF894FFCF36
:0205D8006100C0
:00000001FF
